:060000000A128A11122809
:10000800FE00030E83120313AB000408AC000A08B9
:10001800AD007F08AE000A128A11B3280A128A11AD
:10002800152883120313B401B501B601B701830182
:100038000A128A11622AFF1B292883137F18831743
:100048000008840A0319FF0A080000308A0004081F
:10005800840A8207003445346C34203476346134A1
:100068006C346F3472342034643465346C34203426
:1000780070346F34743465346E34633469346F3477
:100088006D346534743472346F34203465347334A9
:100098003A3420340A3400340A3420344D34653478
:1000A8006E3475342C342034533465346C346534F0
:1000B8006334633469346F346E34653420346F3498
:1000C8007034633469346F346E3420340D340A3438
:1000D800003449346E3467347234653473346534AB
:1000E8002034633461347234613463347434653475
:1000F80072342034413453344334493449343A3423
:1001080020340A34003461342E3420344C346534BD
:1001180065347234203470346F34743465346E341A
:10012800633469346F346D346534743472346F34C5
:1001380020340D340A34003462342E3420344534EB
:100148006E34763469346134723420344134533433
:1001580043344934493420340D340A3400340C1FF4
:10016800B628B728BC281E08A9002908B6000C1311
:100178008C1EBF28C0280A291A08A9002908B5001A
:1001880061303506031DC928CA28EE283608A9009B
:10019800AA012908A4002A08A5000A30A6000030F0
:1001A800A70037300A128A11B5220A128A110130C3
:1001B800F0008030F1000A128A11DB220A128A113B
:1001C8003730F0000030F1000A128A11DB220A12DF
:1001D8008A11052962303506031DF328F4280529FC
:1001E8003F30F0008030F1000A128A11DB220A1237
:1001F8008A11831203138C1E02290329FD281A0869
:1002080086000A128A1101230A128A11831603131F
:100218000C1E0F2910291D29831203130C1E1529E2
:1002280016291D293408031D1A291B291D29B40163
:10023800B40A83122E08FF002D088A002C088400B7
:100248002B0E8300FE0E7E0E090083120313A300FB
:100258007908A1007808A0007B08F1007A08F0006E
:100268002108F3002008F2000A128A11E4210A1278
:100278008A11710883120313A1007008A0000130CD
:10028800FC007C08A30720082104031D4C294D29E4
:10029800302923088400831380010130A3027B08DE
:1002A800F1007A08F0007908F3007808F2000A12E1
:1002B8008A1128220A128A117008FC007C0883120D
:1002C8000313A2007B08F1007A08F0007908F30014
:1002D8007808F2000A128A11E4210A128A117108B8
:1002E800F9007008F8000A30831203132202031C75
:1002F8007E297F2983290730FC007C08A20730303B
:10030800FC007C08A2072208FC00230884007C0863
:10031800831380000130A30278087904031D95290E
:10032800962953290130FC007C08A3070800831292
:1003380003132F080139B100B10DB10D1F083106A3
:10034800FB3931069F003008B2002F08B100320D8A
:10035800B20CB10C31080139B300B30DB30DB30DB4
:100368001F083306F73933069F003008B2002F08FC
:10037800B100320DB20CB10C320DB20CB10C310817
:100388000139B300B30E1F083306EF3933069F0057
:100398003008B2002F08B100320DB20CB10C320D8A
:1003A800B20CB10C320DB20CB10C31080139B300EA
:1003B800B30EB30D1F083306DF3933069F0008005C
:1003C800F501F601700871040319EB29EC29232AB9
:1003D800F701F70AFA2901300310F00DF10DFF3E7D
:1003E800031DF0290130F4007408F707F11FFD29F7
:1003F800FE29EF2901300310F50DF60DFF3E031D10
:10040800FF2971087302031D0B2A70087202031C6E
:100418000E2A0F2A162A7008F2027108031CF30329
:10042800F302751401300310F10CF00CFF3E031DAC
:10043800172A0130F702031D222A232AFE297608EB
:10044800F1007508F00008007008710403192D2ADE
:100458002E2A5D2AF501F50A3C2A01300310F00D19
:10046800F10DFF3E031D322A0130F4007408F50730
:10047800F11F3F2A402A312A71087302031D462AB8
:1004880070087202031C492A4A2A502A7008F2028C
:100498007108031CF303F30201300310F10CF00C94
:1004A800FF3E031D512A0130F502031D5C2A5D2A17
:1004B800402A7308F1007208F00008000A128A1135
:1004C8008F220A128A110A128A1151230A128A11DA
:1004D80000300A128A1135230A128A110030831259
:1004E8000313AF00B0000A128A119B210A128A1165
:1004F8000A128A111D230A128A110A128A115A2312
:100508000A128A110A128A1144230A128A11862AA7
:100518000A128A11122801308316031788008901EC
:100528000130831603138500831203138501831694
:1005380003138601831203138601831603138701AD
:10054800831203138701831603138801831203138D
:100558008801831603130F088F3960388F000F1432
:10056800080083120313A800A51FBB2ABC2ACC2AA3
:100578002D30FD00280884007D0883138000013099
:10058800FD007D08A807A409A509A40A0319A50A5E
:100598002508F9002408F8002708FB002608FA00B7
:1005A80028080A128A1129210A128A110800F02A39
:1005B8000C1EDF2AE02ADC2A7108FF00700884007C
:1005C8000A128A111F200A128A1199000130F007B5
:1005D8000318F10A0030F107710883120313FF00B2
:1005E800700884000A128A111F200A128A11003A20
:1005F800031DFF2A002BDC2A08002230F00080307F
:10060800F1000A128A11DB220A128A115930F0000D
:100618008030F1000A128A11DB220A128A11723024
:10062800F0008030F1000A128A11DB220A128A11C6
:100638000800831603139A011930990083120313D3
:100648009817831603139816831203131816831624
:100658000313181218159815181383120313181377
:10066800080083120313AF0081309F002F0C8316FC
:100678000313031C9F1303189F179F121F120800D0
:10068800831203139F1C492B4A2B4B2B502B9F186B
:100698004E2B4F2B4B2B9F140800831203130C1364
:1006A800831603130C170B178B17080083160313F5
:0606B8008C160C16080070
:08400000FF3FFF3FFF3FFF3FC0
:04400E00D420FF3F7C
:00000001FF
